:100000000C94D8250C9409260C9409260C940926E6
:100010000C9409260C9409260C9409260C940926A4
:100020000C9409260C9409260C9409260C94092694
:100030000C9409260C9409260C9409260C94092684
:100040000C9409260C94BBF90C9409260C940926EF
:100050000C9409260C9409260C94E2EE0D94D825F4
:100060000C9409260C9477C10C9409260C9409264B
:100070000C9409260C9409260C9409260C94092644
:100080000D9449060C9409260C9409260C94092613
:100090000C9409260C9409260C9409260C94092624
:1000A0000C9409260C9409260D941B060C94092621
:1000B0000C9409260C9409260C9409260D94ED0540
:1000C0000C9409260C9409260C9409260C940926F4
:1000D0000C9409260C9409260C9409260C940926E4
:1000E0000C940926084AD73B3BCE016E84BCBFFD69
:1000F000C12F3D6C74319ABD56833DDA3D00C77FF8
:1001000011BED9E4BB4C3E916BAAAABE0000008090
:100110003F05A84CCDB2D44EB93836A9020C50B91F
:10012000918688083CA6AAAA2ABE000000803F004B
:100130000D94202C0C94A64C0D94001D0C94C4C25C
:100140000D94D0220D9469190C94433A0D94B21574
:100150000D94AD220C9458D80D9468220C94FAE4B6
:100160000C941A870C9469DC0D9423150C946D2A59
:100170000C94D7D10D9493220C9495C80C94D486EA
:100180000D9402230C94924C0C94D12A0C94C9C562
:100190000C949F4C0C945EE90C94C14C0C94AD4CA7
:1001A0000D94F11C0D94A1140C94AA4C0C94E6C56A
:1001B0000C9445F00D94E4220C94B74C0C9489C82F
:1001C0000C9465E30D9489220D94A0140C94C085C1
:1001D0000C94BA4C0C9482870D94C1220C9406C3E3
:1001E0000C94A2DE0D9431150D9428190C94CAC2FA
:1001F0000C94994C0D942D150C949DDE0C94B04CE0
:100200000D949B220D941F150D94C02A0D94670820
:100210000C9487D30D946A080C94C7C20D941515DD
:100220000D94FD1C0D94C0180C949C4C0C943CCB6C
:100230000D94EC140D94F8220D94F6140C94C1C294
:100240000C94B9E10D9411150D94FA1C0D94191527
:100250000D94972D0C946B860C94D9CE0D949132FD
:100260000C94CCC80C94A1C10C9419F60C94A7DE84
:100270000D9475220C9406860C948FC80D94F0177B
:100280000C9448860D948E080C949BC30D94F21424
:100290000D94DA220D94FE140C94B7D20C9432C350
:1002A0000D94051D0C9494C50D94D1190C9484DF04
:1002B0000C94B44C0D947F220C94CFC10D940B156B
:1002C0000C946EDC0C945CCA0D9458180C94824CFF
:1002D0000D94D3410C946E2A0D94071D0D94EE22BB
:1002E0000C94CCC20C94A9D90D94141F0C9462EFF9
:1002F0000C94874C0C949D850C9469D10D94CB1271
:100300000C94C3C50C9434D90C94B8C10D942C151D
:100310000C948E860C9436270C9481C50C943D87E2
:100320000C9435E60D945A2E0C9402C40C94F78666
:100330000C9460870D9427150C94DBD80D94F41C55
:100340000C9464DC0C945F850D9449330D94A322C6
:100350000D9420170C9457D40C94D6CE0D9452348F
:100360000C9410DD0D9490430C9427860C945FDC64
:100370000C94954C0C94A34C0D9407150D9470227D
:100380000C9498DE0C94CEC20C94B1860D940A1D88
:100390000D9401150C949BC80D949E140D94FA14A1
:1003A0000C947E850C94D3CE0D9420310C94BE4CCD
:1003B0000D94E71C0D9488170D94B7220C9406C475
:1003C0000D94F71C0C94E3850C9461D00C940AC630
:1003D0004E414E494E495459494E46CDCCCC3D0A2A
:1003E000D7233C17B7D13877CC2B329595E6241F0D
:1003F000B14F0A000020410000C84200401C4620C6
:10040000BCBE4CCA1B0E5AAEC59D745A5F535445B0
:10041000505F50494E005A5F4D53325F50494E0075
:100420005A5F4D53315F50494E005A5F4D494E5F00
:1004300050494E005A5F454E41424C455F50494E2F
:10044000005A5F4449525F50494E00595F5354452A
:10045000505F50494E00595F4D53325F50494E0036
:10046000595F4D53315F50494E00595F4D494E5FC2
:1004700050494E00595F454E41424C455F50494EF0
:1004800000595F4449525F50494E00585F535445EC
:10049000505F50494E00585F4D53325F50494E00F7
:1004A000585F4D53315F50494E00585F4D494E5F84
:1004B00050494E00585F454E41424C455F50494EB1
:1004C00000585F4449525F50494E0053535F5049B2
:1004D0004E005350494E444C455F4C415345525F8A
:1004E00050574D5F50494E005350494E444C455F64
:1004F0004C415345525F454E41424C455F50494E39
:10050000005350494E444C455F4449525F50494E58
:1005100000534552564F335F50494E005345525693
:100520004F325F50494E00534552564F315F50494C
:100530004E00534552564F305F50494E005344537E
:10054000530053445F4445544543545F50494E0063
:1005500053434B5F50494E0050535F4F4E5F5049DD
:100560004E004D4F53495F50494E004D49534F5F28
:1005700050494E004C45445F50494E004C43445F47
:1005800050494E535F5253004C43445F50494E53C1
:100590005F454E41424C45004C43445F50494E53E9
:1005A0005F4437004C43445F50494E535F4436002C
:1005B0004C43445F50494E535F4435004C43445FC5
:1005C00050494E535F4434004B494C4C5F50494EA8
:1005D000004845415445525F4245445F50494E00F2
:1005E0004845415445525F325F50494E00484541AD
:1005F0005445525F315F50494E0048454154455281
:100600005F305F50494E0046494C5F52554E4F5542
:10061000545F50494E0046414E325F50494E0046AD
:10062000414E315F50494E0046414E5F50494E00A9
:1006300045315F535445505F50494E0045315F4D41
:1006400053325F50494E0045315F4D53315F504941
:100650004E0045315F454E41424C455F50494E008A
:1006600045315F4449525F50494E0045305F535415
:1006700045505F50494E0045305F4D53325F504901
:100680004E0045305F4D53315F50494E0045305F5D
:10069000454E41424C455F50494E0045305F44490C
:1006A000525F50494E00455F4D5558325F50494E9C
:1006B00000455F4D5558315F50494E00455F4D55DF
:1006C00058305F50494E0044494749504F545353A6
:1006D0005F50494E00434153455F4C494748545F82
:1006E00050494E0042544E5F454E430042544E5FC7
:1006F000454E320042544E5F454E31004245455012
:1007000045525F50494E004156525F53535F504926
:100710004E004156525F53434B5F50494E00415685
:10072000525F4D4F53495F50494E004156525F4D05
:1007300049534F5F50494E0054454D505F42454428
:100740005F50494E0054454D505F315F50494E0057
:1007500054454D505F305F50494E0046494C574913
:100760004454485F50494E00545844005258440085
:10077000434F4D4D554E49434154494F4E0044520D
:100780005952554E004552524F525300494E464F12
:10079000004543484F002569730025696D20256990
:1007A00073002569682025696D2025697300256916
:1007B00064202569682025696D20256973002569F5
:1007C0007920256964202569682025696D202569BF
:1007D0007300656E7175657565696E672022004DE1
:1007E0004F52542E0053544F5050452E00507269B2
:1007F0006E7465722073746F7070656420647565C3
:1008000020746F206572726F72732E204669782093
:10081000746865206572726F7220616E64207573F2
:1008200065204D39393920746F2072657374617297
:10083000742E202854656D70657261747572652020
:1008400069732072657365742E2053657420697412
:100850002061667465722072657374617274696E6A
:1008600067290A004E6F20436865636B73756D20BE
:1008700077697468206C696E65206E756D6265724B
:100880002C204C617374204C696E653A20004E6FC9
:1008900020436865636B73756D2077697468206C9D
:1008A000696E65206E756D6265722C204C61737483
:1008B000204C696E653A2000636865636B73756DE3
:1008C000206D69736D617463682C204C61737420B2
:1008D0004C696E653A20004C696E65204E756D62FC
:1008E0006572206973206E6F74204C617374204CA4
:1008F000696E65204E756D6265722B312C204C61DE
:100900007374204C696E653A20004D313130004DD2
:100910003331004732382058004D323100534420E3
:1009200072656164206572726F720A00446F6E6551
:10093000207072696E74696E672066696C650A0062
:1009400020496E76616C696420657874727564659F
:100950007220000000000000000000000000000005
:10096000009643000096430000C84342696C696EDC
:10097000656172204C6576656C696E6720477269A7
:10098000643A0A004563686563206F726967696E3F
:100990006500202844525952554E290047323920CB
:1009A0004175746F20426564204C6576656C696E94
:1009B00067003F20284C2C522C462C4229206F7572
:1009C00074206F6620626F756E64732E0A003F2874
:1009D00056296572626F7365206C6576656C206957
:1009E0007320696D706C61757369626C6520283065
:1009F0002D34292E0A00426164205A2076616C75DC
:100A0000650A004E6F2062696C696E6561722067CD
:100A10007269640A00486F74656E6420746F6F2099
:100A2000636F6C640A00286E6F2066696C6529002C
:100A300043757272656E742066696C653A20005366
:100A400044207072696E74696E67206279746520E3
:100A5000004E6F74205344207072696E74696E6723
:100A60000A0044656C6574696F6E206661696C6527
:100A7000642C2046696C653A200046696C652064E8
:100A8000656C657465643A0043616E6E6F74206FC7
:100A900070656E20737562646972200000012530F4
:100AA0001D0CFF2829FF24311C0BFF4527FF232F96
:100AB0001B16FF4443FFFFFF0403080206FF222B1F
:100AC0001A4142FF033809FF3650726F7465637430
:100AD00065642050696E0A002020206E6F6E2D73B1
:100AE00074616E646172642050574D206D6F64654F
:100AF00000433A2000423A2000413A2000202020C2
:100B000020434F4D00202020636F6D70617265207F
:100B1000696E7465727275707420656E61626C6561
:100B200064002020206F766572666C6F7720696E96
:100B30007465727275707420656E61626C656400B4
:100B40003A20002020202054494D534B00423A20A7
:100B500000202020205443435200413A200020200E
:100B6000202054434352002020202043533A2000A9
:100B70002020202057474D3A200050574D3A202042
:100B80002534640050574D3A202025346400470036
:100B90004800000088008A008C00B300B400000008
:100BA00098009A009C00A800AA00AC0028012A0125
:100BB0002C012020202054494D455200440045007E
:100BC0006E00800081006F00B000B10070009000E6
:100BD00091007100A000A1007200200121017300AA
:100BE00020697320616C736F207469656420746F71
:100BF00020746869732070696E0054494D45523104
:100C000043000A202E002020002020506F72743AEA
:100C100020004F7574707574203D2000496E70750A
:100C20007420203D200050574D3A20202534640088
:100C300050574D3A20202534640050574D3A20201B
:100C40002534640050574D3A202025346400505715
:100C50004D3A20202534640050574D3A2020253449
:100C6000640050574D3A20202534640050574D3AC7
:100C700020202534640050574D3A2020253464004C
:100C800050574D3A20202534640050574D3A2020CB
:100C90002534640050574D3A2020253464005057C5
:100CA0004D3A20202534640050574D3A20202534F9
:100CB000640050574D3A20202534640050574D3A77
:100CC00020202534640020202000202020416E6157
:100CD0006C6F6720696E203D20253564003C756E81
:100CE000757365642F756E6B6E6F776E3E0020288E
:100CF0004125326429202000257350494E3A202591
:100D000033642000416E616C6F6720696E203D2066
:100D10002535640070726F7465637465642000200B
:100D2000284125326429202000257350494E3A205D
:100D300025336420006C070001680701015B073957
:100D4000005007360045073700380738002B0732B8
:100D5000011E0733011207340107073501FC064F56
:100D600001F4063F01EC064001E4064E01D5062ED3
:100D700001C7062601BC061101B1061001A60654E2
:100D8000019B062B018D061A01820641017706425E
:100D9000016B06220160062A015206190147063F2F
:100DA000013C06400130062101280608011F060209
:100DB000011606060107061801FA050901ED0507E7
:100DC00001E0050601D1050301C8055001BC054835
:100DD00001B0054901A4054A0198054B0188054762
:100DE000017C05460174050D016B05320162053376
:100DF000015805040150053401420551013D0535F6
:100E00000132050401270517011C0518011105050C
:100E10000101052001E8041F01D2042D01CB043596
:100E200001C1043001B4041D01AA040C01A004286E
:100E300001960429018B0425018104310174041CED
:100E4000016A040B0160044501560427014B042488
:100E50000141042F0134041B012A0416012004441B
:100E600001160443010B042301446F6E652E0A0032
:100E700061626C65640A0064697300656E00656E8A
:100E80006473746F70206D6F6E69746F722000747C
:100E9000726967676572206E6F742064657465633C
:100EA0007465640A006E6F697365206465746563B8
:100EB000746564202D20706C656173652072652DEA
:100EC00072756E20746573740A00424C546F7563BA
:100ED0006820636F6D70617469626C652070726FF9
:100EE0006265206465746563746564202D20707587
:100EF0006C736520776964746820282B2F2D20344B
:100F00006D53293A20005A20536572766F20507233
:100F10006F62652064657465637465640A00706C53
:100F20006561736520747269676765722070726F9E
:100F300062650A004552524F523A20424C544F5576
:100F4000434820656E61626C6564202D2073657472
:100F50002074686973206465766963652075702004
:100F600061732061205A20536572766F2050726F32
:100F70006265207769746820696E76657274696E3F
:100F80006720617320747275652E0A002E2020532D
:100F9000544F5745442028747269676765726564C9
:100FA000292073746174653A204849474820286CA9
:100FB0006F6769632031290A002E20204445504C78
:100FC0004F5945442073746174653A204C4F572043
:100FD000286C6F6769632030290A002E2020535443
:100FE0004F574544202874726967676572656429A4
:100FF0002073746174653A204C4F5720286C6F67DA
:1010000069632030290A002E20204445504C4F5956
:1010100045442073746174653A2048494748202844
:101020006C6F6769632031290A00424C546F756305
:101030006820636C6F6E65206465746563746564B5
:101040000A005741524E494E47202D20494E5645E1
:101050005254494E472073657474696E67207072EC
:101060006F6261626C79206261636B776172647335
:101070000A002E206465706C6F7920262073746FCF
:101080007720342074696D65730A0066616C73653E
:101090000A002E205A5F4D494E5F454E4453544F2F
:1010A000505F494E56455254494E473A20002E2033
:1010B00075736573205A5F4D494E5F454E445354D6
:1010C0004F505F494E56455254494E472028696754
:1010D0006E6F726573205A5F4D494E5F50524F429A
:1010E000455F454E4453544F505F494E5645525408
:1010F000494E47290A002E2070726F626520757371
:101100006573205A5F4D494E2070696E3A20002E5B
:10111000202073746F7720616E676C653A20202001
:10112000002E20206465706C6F7920616E676C659D
:101130003A20002E20207573696E6720696E646501
:10114000783A202000536572766F2070726F626566
:1011500020746573740A005761746368696E672050
:1011600070696E730A005374616E64617264204426
:101170006576696174696F6E3A20002052616E670E
:10118000653A2000204D61783A2000204D696E3A82
:1011900020004D65616E3A200046696E697368658E
:1011A00064210A002072616E67653A2000206D613B
:1011B000783A2000206D696E3A2000207369676DCF
:1011C000613A2000206D65616E3A20003A207A3A3B
:1011D0002000206F662000205A002059002058006F
:1011E000476F696E6720746F3A00436C6F636B776B
:1011F0006973650A00436F756E7465722D00204433
:101200006972656374696F6E3A2000202020616EF8
:10121000676C653A20005374617274696E6720725E
:1012200061646975733A2000506F736974696F6EF9
:10123000696E67207468652070726F62652E2E2E4D
:101240000A003F4E756D626572206F66206C65679F
:101250007320696E206D6F76656D656E74206E6F9C
:101260007420706C61757369626C652028302D3153
:1012700035292E0A003F2028582C5929206F7574D3
:10128000206F6620626F756E64732E0A003F536193
:101290006D706C652073697A65206E6F7420706C58
:1012A00061757369626C652028342D3530292E0AEA
:1012B000004D3438205A2D50726F6265205265708F
:1012C0006561746162696C69747920546573740A2C
:1012D000003F2856296572626F7365206C657665DC
:1012E0006C20697320696D706C61757369626C65DF
:1012F0002028302D34292E0A0046696C616D656EF8
:101300007420757365643A200053746174733A20D5
:10131000002C204C6F6E67657374206A6F623A20F0
:1013200000546F74616C2074696D653A20005374C9
:101330006174733A20002C204661696C65643A2020
:10134000002C2046696E69736865643A200050720B
:10135000696E74733A200053746174733A200020EC
:10136000573A004520436F6F6C696E672E2E2E0032
:101370004520456E20636861756666652E2E2E00D9
:1013800020573A0042656420636F6F6C696E672E68
:101390002E2E004C697420656E2063686175666648
:1013A000652E2E2E00205A3A0020593A0020436F15
:1013B000756E7420583A0020453A00205A3A0020B1
:1013C000593A00583A003A004361703A0057415286
:1013D0004E494E4721204C6F77205A204A65726B48
:1013E000206D6179206C65616420746F20756E7763
:1013F000616E746564207061757365732E0A0020D8
:101400005A00205900580020204D61783A200020D1
:101410005A00205900580020204D696E3A20004D96
:10142000617263686500417272657400536F66741F
:1014300020656E6473746F70733A20003A20002048
:10144000536572766F2000206F7574206F6620726E
:10145000616E67650A00536572766F2000496E768B
:10146000616C69642065787472756465720A002025
:10147000643A0020693A0020703A004B642000234F
:10148000646566696E652044454641554C545F006D
:101490004B69200023646566696E652044454641BA
:1014A000554C545F004B70200023646566696E657F
:1014B0002044454641554C545F00504944204175F5
:1014C000746F74756E652066696E697368656421F2
:1014D0002050757420746865206C617374204B70A3
:1014E0002C204B6920616E64204B6420636F6E7307
:1014F00074616E74732066726F6D2062656C6F77B5
:1015000020696E746F20436F6E66696775726174CF
:10151000696F6E2E680A00504944204175746F74DB
:10152000756E65206661696C6564212074696D65FE
:101530006F75740A00453120454D42414C4C454D74
:10154000454E5420544845524D2E004245442054A7
:101550004845524D414C2052554E41574159005437
:101560006865726D616C2052756E617761790045B6
:1015700031204572726575722064652063686175FB
:10158000666665004265642068656174696E6720FF
:101590006661696C65640048656174696E672066A0
:1015A00061696C656400504944204175746F7475BD
:1015B0006E65206661696C6564212054656D706597
:1015C00072617475726520746F6F20686967680A4C
:1015D00000204B643A2000204B693A2000204B70D9
:1015E0003A20000A20436C617373696320504944B8
:1015F000200A002054753A2000204B753A20002024
:101600006D61783A2000206D696E3A200020643ABE
:10161000200020626961733A2000504944204175DE
:10162000746F74756E652073746172740A0050492A
:1016300044204175746F74756E65206661696C65D0
:10164000642120426164206578747275646572203B
:101650006E756D6265720A0041727265740A0046A9
:10166000616465204865696768742000426564208C
:101670004C6576656C696E6720004661696C6564CF
:1016800020746F20656E61626C6520426564204C39
:101690006576656C696E670A004D65736820706FCA
:1016A000696E742063616E6E6F742062652072656E
:1016B000736F6C7665640A004D34323120696E6355
:1016C0006F727265637420706172616D65746572AA
:1016D0002075736167650A00446563616C616765C5
:1016E00073206170706C6971756573004572723A30
:1016F00020546F6F206661722100546F6F20666105
:10170000722066726F6D207265666572656E6365C4
:1017100020706F696E740A00496E7365727420667A
:10172000696C616D656E7420616E642070726573A2
:101730007320627574746F6E0A0050726573732043
:10174000627574746F6E20746F2068656174206EAA
:101750006F7A7A6C650A00496E73657274206669E7
:101760006C616D656E7420616E6420707265737358
:1017700020627574746F6E20286F72204D3130387E
:10178000290A0047322F473320626164207061725A
:10179000616D65746572730A005265706F732E2EE9
:1017A0002E004F726967696E652058592050726526
:1017B0006D6965720A004F726967696E65205859D4
:1017C000205072656D69657200205A3A20002059D8
:1017D0003A200042656420583A20004D6573682025
:1017E000706F696E742063616E6E6F742062652025
:1017F0007265736F6C7665640A00417474656E2E51
:10180000206465206C277574696C2E004D6F7465BB
:1018100075727320626C6F717565732E00456E640E
:101820002066696C65206C6973740A00426567699B
:101830006E2066696C65206C6973740A004D3132E4
:1018400035005072696E742074696D653A20006FBE
:1018500066660091078C0785077E0770074445423E
:1018600055473A004D4F52542E004D3131332053DD
:10187000006F6B005468696E6B65722053452041A0
:10188000727265742E00544845524D414C5F50525F
:101890004F54454354494F4E004155544F524550C3
:1018A0004F52545F53445F53544154555300454D78
:1018B000455247454E43595F5041525345520043AC
:1018C0004153455F4C494748545F42524947485449
:1018D0004E45535300544F47474C455F4C4947488A
:1018E000545300534F4654574152455F504F57454C
:1018F00052004255494C445F50455243454E5400B6
:101900004C4556454C494E475F44415441005A5F4F
:1019100050524F4245004155544F4C4556454C009E
:101920005052494E545F4A4F420050524F47524521
:101930005353004155544F5245504F52545F5445F4
:101940004D5000564F4C554D455452494300454566
:1019500050524F4D0053455249414C5F584F4E5FD6
:10196000584F4646004649524D574152455F4E41F9
:101970004D453A4D61726C696E20312E312E392001
:10198000284769746875622920534F555243455F53
:10199000434F44455F55524C3A68747470733A2F04
:1019A0002F6769746875622E636F6D2F4D61726C5D
:1019B000696E4669726D776172652F4D61726C69EF
:1019C0006E2050524F544F434F4C5F56455253492F
:1019D0004F4E3A312E30204D414348494E455F54D9
:1019E0005950453A5468696E6B65722053452045DD
:1019F000585452554445525F434F554E543A312046
:101A0000555549443A63656465326132662D343117
:101A100061322D343734382D396231322D6335350A
:101A20006336326633363766660A002F2F20004D44
:101A300031343520533C696E6465783E206F75748F
:101A4000206F662072616E67652028302D31290A6B
:101A500000205400205200416363656C657261741C
:101A6000696F6E3A20500020466C6F773A20004331
:101A7000290A0061626C656420286D696E207465B6
:101A80006D702000436F6C642065787472756465B6
:101A90007320617265200020643A0020693A0020BA
:101AA000703A004E6F2063617365206C69676874DB
:101AB0000A00454550524F4D204F4B0A003F5A20D7
:101AC0006F7574206F662072616E676520282D32F5
:101AD0003020746F203230290A003A200050726F93
:101AE0006265205A204F6666736574003F4B20760E
:101AF000616C7565206F7574206F662072616E670A
:101B0000652028302D3130292E0A00416476616E1F
:101B10006365204B3D0041637469766520457874A8
:101B200072756465723A2000496E76616C69642052
:101B300065787472756465720A00526573656E64C7
:101B40003A20006F6B0020746F6F206C6F6E6720FF
:101B5000657874727573696F6E2070726576656EE4
:101B60007465640A0020636F6C6420657874727514
:101B700073696F6E2070726576656E7465640A00B5
:101B8000627573793A2070617573656420666F724F
:101B900020696E7075740A00627573793A207061FD
:101BA0007573656420666F7220757365720A0062D2
:101BB0007573793A2070726F63657373696E670A23
:101BC000004D4F52542E004B494C4C2063617573AD
:101BD0006564206279204B494C4C20627574746FA7
:101BE0006E2F70696E0A004D4F52542E004B494CB7
:101BF0004C2063617573656420627920746F6F2077
:101C00006D75636820696E616374697665207469B7
:101C10006D65202D2063757272656E7420636F6D23
:101C20006D616E643A200052615A2E205356500066
:101C3000494D50522E2053544F505045450050723C
:101C4000696E7465722068616C7465642E206B69BE
:101C50006C6C28292063616C6C6564210A000000AB
:101C600000000000000000000000000070420000C2
:101C700070420000A040000000005761726E696E63
:101C8000673A20486F6D696E672042756D70204419
:101C9000697669736F72203C20310A0002020400E9
:101CA00000A0400000A0400000004000009643005B
:101CB0000096430000C843FFFFFF4D3630303A2006
:101CC00054726F702066726F696400486F74656E3D
:101CD0006420746F6F20636F6C640A007C3C3E5E0E
:101CE0002B3D3F2F5B5D3B2C2A225C004572726FBF
:101CF000722077726974696E6720746F2045455051
:101D0000524F4D210A00454550524F4D2064617499
:101D10006173697A65206572726F722E0A00290AF2
:101D2000002062797465733B206372632000536501
:101D30007474696E67732053746F72656420280031
:101D4000290A002062797465733B20637263200066
:101D50002073746F7265642073657474696E677341
:101D60002072657472696576656420280020286396
:101D7000616C63756C6174656429210A0020213DE2
:101D80002000454550524F4D20435243206D69730A
:101D90006D61746368202D202873746F72656429E7
:101DA00020002053697A653A2000496E6465783ACC
:101DB0002000204D61726C696E3D563535290A0050
:101DC00028454550524F4D3D00454550524F4D20FE
:101DD00076657273696F6E206D69736D6174636887
:101DE000200048617264636F6465642044656661C5
:101DF000756C742053657474696E6773204C6F61E1
:101E00006465640A00DC050000DC050000320000A7
:101E100000DC05000000009643000096430000A08F
:101E200040000086420000A0420000A0420000C81E
:101E3000430000BA423A0A0020286D6D2900202094
:101E40004D36303320002055004C0046696C616DE2
:101E5000656E74206C6F61642F756E6C6F616420A9
:101E60006C656E677468733A0A0020204D39303013
:101E7000204B004C696E65617220416476616E632F
:101E8000653A0A0020204D383531205A005A2D502D
:101E9000726F6265204F666673657400204400208F
:101EA000490020204D333034205000204400204988
:101EB0000020204D333031205000504944207365BC
:101EC0007474696E67733A0A00204600204200204D
:101ED000480020204D3134352053004D6174657227
:101EE00069616C2068656174757020706172616DE4
:101EF00065746572733A0A00205A00204A00202057
:101F00004732392057204900205A0020204D3432D2
:101F1000302053004175746F20426564204C657613
:101F2000656C696E673A0A00205A0020590020202B
:101F30004D323036205800486F6D65206F666673ED
:101F400065743A0A00204500205A002059002058A4
:101F50000020540020530020204D32303520420014
:101F600020453C6D61785F655F6A65726B3E00205D
:101F7000583C6D61785F785F6A65726B3E20593CB2
:101F80006D61785F795F6A65726B3E205A3C6D6166
:101F9000785F7A5F6A65726B3E00416476616E635A
:101FA00065643A20423C6D696E5F7365676D656E6E
:101FB000745F74696D655F75733E20533C6D696E27
:101FC0005F66656564726174653E20543C6D696E40
:101FD0005F74726176656C5F666565647261746575
:101FE0003E0020540020520020204D32303420503A
:101FF00000416363656C65726174696F6E2028755A
:102000006E6974732F7332293A20503C7072696E76
:10201000745F616363656C3E20523C7265747261EB
:1020200063745F616363656C3E20543C74726176D7
:10203000656C5F616363656C3E0A00204500205A51
:102040000020590020204D3230312058004D617859
:10205000696D756D20416363656C65726174696F4C
:102060006E2028756E6974732F7332293A0A002026
:102070004500205A0020590020204D32303320588E
:10208000004D6178696D756D206665656472617477
:1020900065732028756E6974732F73293A0A0020BE
:1020A0004500205A0020590020204D393220580088
:1020B00053746570732070657220756E69743A0A86
:1020C0000020204D3230302044300A0020204D3294
:1020D00030302044002044697361626C65640A00FA
:1020E00046696C616D656E742073657474696E67A2
:1020F000733A0020204D3134392043203B20556E67
:1021000069747320696E2043656C736975730A0086
:102110002020473231202020203B007A5F6D696EFD
:102120003A2000795F6D696E3A2000785F6D696EC4
:102130003A20005265706F7274696E6720656E6434
:1021400073746F70207374617475730A00000000FB
:1021500001000000010000800055555500000040BE
:102160000033333300AAAA2A004992240000002039
:1021700000C7711C0099991900D1451700555515D4
:10218000003BB1130024491200111111000000108E
:10219000000F0F0F00E3380E0043790D00CCCC0C7C
:1021A00000C3300C00E8A20B0064210B00AAAA0AAD
:1021B00000703D0A009DD80900427B090092240965
:1021C00000DCD308008888080010420800000008DE
:1021D00000F0C107008787070075500700711C07D2
:1021E000003EEB0600A1BC0600699006006666068C
:1021F00000703E06006118060017F4050074D10552
:10220000005BB00500B290050062720500555505EF
:102210000078390500B81E0500050505004EEC04E0
:102220000087D40400A1BD040090A70400499204D3
:1022300000C17D0400EE690400C756040044440454
:10224000005C320400082104004110040000000476
:10225000003FF00300F8E0030026D20300C3C303ED
:1022600000CCB503003AA803000A9B0300388E0394
:1022700000C08103009F750300D0690300505E0316
:10228000001D53030034480300913D030033330322
:102290000016290300381F030097150300300C03B4
:1022A00000030303000BFA020049F10200BAE8023E
:1022B000005CE002002DD802002DD0020059C802B7
:1022C00000B0C0020031B90200DAB10200AAAA02CD
:1022D00000A0A30200BC9C0200FA9502005C8F02E1
:1022E00000DF88020082820200457C02002776021D
:1022F0000027700200436A02007C640200D05E0284
:10230000003F590200C853020020746F6F206C6FA9
:102310006E6720657874727573696F6E2070726570
:1023200076656E7465640A0020636F6C642065785E
:1023300074727573696F6E2070726576656E746500
:10234000640A00FFFDFCFAF8F6F4F2F0EEECEAE9BC
:10235000E7E5E3E1E0DEDCDAD9D7D5D4D2D0CFCDE2
:10236000CBCAC8C7C5C3C2C0BFBDBCBAB9B7B6B473
:10237000B3B2B0AFADACAAA9A8A6A5A4A2A1A09ED5
:102380009D9C9A99989795949392908F8E8D8B8A15
:102390008988878684838281807F7E7D7B7A797835
:1023A00077767574737271706F6E6D6C6B6A696835
:1023B00067666564636261605F5E5D5C5B5A595825
:1023C000585756555453525150504F4E4D4C4B4AFE
:1023D0004A4948474646454443424241403F3E3EC3
:1023E0003D3C3B3B3A393838373635353433323279
:1023F0003130302F2E2E2D2C2B2B2A292928272720
:1024000026252524232322212120201F1E1E1D1CBA
:102410001C1B1B1A19191818171616151514131347
:1024200012121111100F0F0E0E0D0D0C0C0B0A0ACB
:102430000909080807070606050504040303020244
:1024400001000040012C0173012201AB011801F3CE
:10245000010E0148020401AC02FA002A03F000C395
:1024600003E6008004DC006D05D2006C06C800C7DE
:1024700007BE007009B4006D0BAA00CB0DA000CF01
:10248000138C00F21B7800E9246400142E50009C89
:10249000353C00B83A2800A03D14000B3F00002452
:1024A000F4D43050C38E20C2A24017828B70111218
:1024B0007A910D816CD90AA861E108C75866076155
:1024C0005143061E4B5D05C145A7041A411104097D
:1024D0003D9803713931034036DB0265339102D4F4
:1024E000305402802E1D02632CEE01752AC501B006
:1024F00028A001102781018F2564012B244B01E0C6
:10250000223401AC211F018D200D01801FFC0084AD
:102510001EED00971DDF00B81CD200E61BC6002090
:102520001BBC00641AB200B219A8000A19A0006A04
:10253000189900D117910040178B00B5168400310F
:10254000167E00B31579003A157300C7146F005852
:10255000146A00EE1366008813630025135E00C73B
:10256000125B006C12570015125400C1115100701B
:10257000114F0021114B00D61049008D1047004625
:1025800010440002104200C00F4000800F3E004285
:102590000F3C00060F3B00CB0E3800930E37005C5B
:1025A0000E3500270E3400F30D3200C10D310090BE
:1025B0000D3000600D2E00320D2D00050D2C00D9C0
:1025C0000C2B00AE0C2900850C29005C0C27003573
:1025D0000C27000E0C2600E80B2400C40B2400A0DE
:1025E0000B23007D0B23005A0B2100390B2100180F
:1025F0000B2000F80A1F00D90A1E00BB0A1E009D0E
:102600000A1D00800A1D00630A1C00470A1B002CDB
:102610000A1B00110A1A00F7091A00DD091900C483
:10262000091900AB091900920917007B091800630A
:102630000917004C09160036091600200916000A71
:10264000091500F5081500E0081400CC081400B8BE
:10265000081400A4081400900813007D0812006BF1
:10266000081300580812004608120034081100230D
:102670000811001208110001081100F0071000E015
:10268000071000D0071000C0071000B0070F00A10E
:1026900007100091070E0083070F0074070F0065F5
:1026A000070E0057070E0049070E003B070D002ECE
:1026B000070E0020070D0013070D0006070D00F997
:1026C000060C00ED060D00E0060C00D4060C00C858
:1026D000060C00BC060C00B0060C00A4060B00990A
:1026E000060C008D060B0082060B0077060B006CB3
:1026F000060B0061060A0057060B004C060A004252
:10270000060A0038060A002E060A0024060A001AE5
:10271000060A001006090007060A00FD050900F474
:10272000050900EB050900E2050900D9050900D0FB
:10273000050900C7050900BE050900B5050800AD7B
:10274000050800A50509009C050800940508008CF3
:10275000050800840508007C050800740508006C65
:10276000050700650508005D050700560508004ED1
:102770000507004705070040050800380507003138
:102780000507002A050700230507001C050600169B
:102790000507000F0507000805060002050700FBF6
:1027A000040600F5040700EE040600E8040600E253
:1027B000040700DB040600D5040600CF040600C9A8
:1027C000040600C3040600BD040600B7040600B1F9
:1027D000040500AC040600A6040600A00405009B46
:1027E00004060095040500900406008A040500858F
:1027F000040500800406007A0405007504050070D5
:102800000405006B04050066040500610405005C16
:1028100004050057040500520405004D0405004856
:10282000040500430405003E0404003A0405003595
:10283000040500300404002C0405002704040023D0
:102840000405001E0404001A040400160405001107
:102850000404000D0404000904050004040400003D
:10286000040400FC030400F8030400F4030400F073
:10287000030400EC030400E8030400E4030400E0A4
:10288000030400DC030400D8030400D4030400D0D4
:10289000030400CC030400C8030300C503030024A1
:1028A000F404D9201BC40C5C0E9804C4095F0265B3
:1028B000077101F405F900FB04B30048048700C167
:1028C0000369005803550003034500BE023A008423
:1028D00002310053022A002902250004022000E4EC
:1028E000011C00C8011900AF0117009801140084F1
:1028F000011300710110006101100051010E00432D
:10290000010D0036010B002B010B0020010B0015FF
:102910000109000C01090003010800FB000800F395
:10292000000800EB000700E4000600DE000600D807
:10293000000600D2000600CC000500C7000500C25A
:10294000000500BD000400B9000400B5000400B19A
:10295000000400AD000400A9000400A5000300A2CB
:102960000003009F0004009B0003009800030095F3
:1029700000020093000300900003008D0002008B12
:10298000000300880002008600020084000300812A
:102990000002007F0002007D0002007B000200793F
:1029A000000200770001007600020074000200724D
:1029B000000100710002006F0002006D0001006C58
:1029C0000002006A00010069000200670001006661
:1029D0000001006500010064000200620001006166
:1029E000000100600001005F0002005D0001005C6A
:1029F0000001005B0001005A00010059000100586D
:102A0000000100570001005600010055000100546C
:102A1000000100530000005300010052000100516A
:102A2000000100500001004F0001004E0000004E68
:102A30000001004D0001004C0001004B0000004B64
:102A40000001004A00010049000100480000004860
:102A5000000100470001004600000046000100455B
:102A60000000004500010044000100430000004355
:102A7000000100420000004200010041000000414E
:102A8000000100400001003F0000003F0001003E47
:102A90000000003E0001003D0000003D0001003C40
:102AA0000000003C0000003C0001003B0000003B37
:102AB0000001003A0000003A00010039000000392E
:102AC0000001003800000038000000380001003725
:102AD000000000370001003600000036000000361C
:102AE0000001003500000035000000350001003411
:102AF0000000003400000034000100330000003307
:102B000000000033000100320000003200000032FB
:102B100000010031000000310000003100010030F0
:102B200000000030000000300001002F0000002FE6
:102B30000000002F0000002F0001002E0000002EDA
:102B40000000002E0001002D0000002D0000002DCF
:102B50000000002D0001002C0000002C0000002CC3
:102B60000000002C0001002B0000002B0000002BB7
:102B70000000002B0001002A0000002A0000002AAB
:102B80000000002A0001002900000029000000299F
:102B90000000002900000029000100280000002892
:102BA0000000002800000028000000280001002785
:102BB0000000002700000027000000270000002779
:102BC000000100260000002600000026000000266C
:102BD000000000260001002500000025000000255F
:102BE0000000002500000025000000250001002451
:102BF0000000002400000024000000240000002445
:102C00000001002300000023000000230000002337
:102C10000000002300000023000000230001002228
:102C2000000000220000002200000022000000221C
:102C3000000000220001002100000021000000210E
:102C40000000002100000021000000210000002100
:102C500000010020000000200000002000000020F3
:102C600000000020000000200000002000000020E4
:102C70000001001F0000001F0000001F0000001FD7
:102C80000000001F0000001F0000001F0001001EC8
:102C90000000001E0000001E0000001E00000023B7
:102CA0002C0000B8220000561800003A0F0000B8AF
:102CB000080000B1040000710200003E0100004D58
:102CC0006963726F737465707320756E6176616984
:102CD0006C61626C650A0045313A200045303A204B
:102CE000005A3A2000593A2000583A20004D5331FA
:102CF0002C4D53322050696E730A006265640A00DD
:102D00002C2073797374656D2073746F70706564B3
:102D100021204865617465725F49443A200042652C
:102D2000642068656174696E67206661696C6564BA
:102D30000048656174696E67206661696C6564004E
:102D40004531204572726575722064652063686143
:102D5000756666650048656174696E6720666169BD
:102D60006C65640070012C0190012701B001220103
:102D7000C0011D01F00118011002130130020E0103
:102D80006002090190020401C002FF000003FA0082
:102D90004003F5008003F000D003EB002004E600C0
:102DA0007004E100E004DC004005D700C005D2005B
:102DB0004006CD00D006C8008007C3003008BE0022
:102DC000F008B900C009B400B00AAF00B00BAA0007
:102DD000D00CA500000EA000500F9B00C010960064
:102DE0005012910000148C00C0158700B0178200AB
:102DF000B0197D00D01B7800001E730040206E00CB
:102E000090226900F024640040275F0090295A0056
:102E1000E02B5500102E500020304B0010324600A1
:102E2000E033410090353C001037370070383200F5
:102E3000A0392D00B03A2800A03B2300603C1E00C2
:102E4000103D1900903D1400103E0F00703E0A0026
:102E5000C03E0500003F0000403FFBFF803FF6FF03
:102E6000C03FF1FF453120454D42414C4C454D4559
:102E70004E5420544845524D2E004245442054485B
:102E800045524D414C2052554E41574159005468CE
:102E900065726D616C2052756E61776179004531A4
:102EA000204572723A2054454D502E204D41580015
:102EB0004572723A2054454D502E204D4158204CB9
:102EC0004954004D415854454D502074726967670C
:102ED00065726564004531204572723A2054454D53
:102EE000502E204D494E004572723A2054454D50A7
:102EF0002E204D494E204C4954004D494E54454DCD
:102F00005020747269676765726564004D383420BB
:102F1000582059205A204500202F002042403A00D6
:102F200020403A0025753A2530327500253032753B
:102F30003A253032750025756420253032753A25E2
:102F400030327500202020202020005A0059002017
:102F50002020200058000920000000000000000090
:102F600000000000003FFFF0000000000000000033
:102F700000000000380070000000000000000000A9
:102F800000000030FC3000000000000000000000E5
:102F9000000020FC10000000000000000000000005
:102FA0000020781000000000000000000000000079
:102FB0002030100000000000000000000000002C85
:102FC00000D03FC0000000000000002082002E3131
:102FD000D07FE0000000000000001041002F7BD0F7
:102FE0007FE0000000000000001041002F7BD07F38
:102FF000E0000000000000002082002E31D03FC021
:10300000000000000000004104002C00D03FC00080
:103010000000000000008208002030107FE0000067
:1030200000000000008208002078107FE00000000F
:103030000000000041040020FC107FE000000000C0
:1030400000000020820030FC301F800000000000E3
:1030500000000000003800700F00000000000000B9
:1030600000FFFFC03FFFF00600000000000000006E
:10307000FFFFC00000000000000000000000000092
:1030800000003FFFF0000000000000000000000012
:103090000038007000000000000000000000000088
:1030A0003186300000000000000000000000002316
:1030B00087100000000000000000000000002787CB
:1030C000900000000000000000000000002F87D0EA
:1030D0000000000000000000000000002F03D03FAF
:1030E000C0000000000000002082002030107FE0BF
:1030F000000000000000001041002078107FE00078
:103100000000000000001041002078107FE0000067
:1031100000000000002082002030103FC0000000AE
:10312000000000004104002F03D03FC00000000059
:103130000000008208002F87D07FE0000000000020
:1031400000008208002787907FE000000000000058
:10315000004104002387107FE00000000000000011
:103160002082003186301F80000000000000000037
:1031700000003800700F0000000000000000FFFF9A
:10318000C03FFFF0060000000000000000FFFFC08D
:103190000000005468696E6B6572205345005072E0
:1031A000696E74696E672E2E2E00496D70722E2026
:1031B000656E2070617573650052616E676572207F
:1031C000424C546F756368004D32383020503020C7
:1031D000533930004465706C6F79657220424C54ED
:1031E0006F756368004D32383020503020533130D5
:1031F000004175746F7465737420424C546F75632D
:1032000068004D3238302050302053313230005277
:10321000615A20424C546F756368004D323830203B
:1032200050302053313630004D656E752070726914
:103230006E636970616C004D313235004D3234007F
:10324000496D70722E20416E6E756C65650050611F
:103250007320646520636172746500496D70722E1D
:1032600020646570756973205344004172726574FF
:10327000657220696D70722E0052657072656E64A1
:10328000726520696D70722E00496E666F732069D9
:103290006D7072696D616E746500496E74657272ED
:1032A0006F6D70726520696D70722E00436F6E7461
:1032B000726F6C6572005072657061726572005257
:1032C00065676C6572005265746F75720042616269
:1032D0007973746570205A004368616E6765722067
:1032E00066696C616D656E740042616279737465C4
:1032F00070205A00466C757800466C7578005669E7
:1033000074657373652076656E74696C2E20330066
:10331000566974657373652076656E74696C2E20CA
:103320003300566974657373652076656E74696CD5
:103330002E203200566974657373652076656E744D
:10334000696C2E203200566974657373652076654A
:103350006E74696C2E203100566974657373652034
:1033600076656E74696C2E2031004C6974004C696E
:103370007400427573650042757365004861757429
:10338000657572206C697373656500486175746555
:103390007572206C69737365650056697465737323
:1033A000650056697465737365004D656E752070B0
:1033B00072696E636970616C0050726563686175F3
:1033C000666661676520504C412066696E690050F1
:1033D000726563682E20504C41206C6974005072F5
:1033E0006563686175666661676520504C41005091
:1033F00072657061726572005072656368617566AE
:1034000066616765204142532066696E69005072AB
:103410006563682E20414253206C697400507265C8
:10342000636861756666616765204142530050724A
:10343000657061726572004D343238004D3238303B
:103440002050302053313630004175746F746573ED
:103450007420424C546F756368004D3238302050F0
:103460003020533132300050726563686175666692
:1034700061676520414253005072656368617566FB
:103480006661676520504C4100526566726F6964E1
:1034900069720052615A20424C546F756368004350
:1034A00068616E6765722066696C616D656E740037
:1034B00041727265746572206D6F74657572730008
:1034C0004D3834005265676C2E20646563616C2E44
:1034D000206F726967696E65004861757465757201
:1034E000206C697373656500486175746575722039
:1034F0006C6973736565004172726574004D617229
:10350000636865005265676C2E204E69762E206CCC
:103510006974005265676C2E204E69762E206C69A6
:1035200074004732380A473239004F726967696E52
:1035300065205A204175746F2E00473238205A009A
:103540004F726967696E652059204175746F2E004E
:103550004732382059004F726967696E65205820DC
:103560004175746F2E004732382058004F726967DA
:10357000696E65206175746F2E00473238004465AE
:10358000706C6163657220756E20617865004D65B1
:103590006E75207072696E636970616C004465704D
:1035A0006C2E2058004465706C2E205900446570C4
:1035B0006C2E205A004578747275646575720044EB
:1035C00065706C2E20302E316D6D004465706C2E50
:1035D00020316D6D004465706C2E2031306D6D00B2
:1035E0004465706C6163657220756E20617865005A
:1035F000457874727564657572004465706C2E2030
:103600005A004465706C2E2059004465706C2E2061
:103610005800457874727564657572004465706C05
:103620002E205A004465706C2E2059004465706C41
:103630002E205800507265706172657200496E6983
:103640007469616C6973657220454550524F4D0035
:10365000436F6E74726F6C6572005265737461753E
:103660007265722064656661757473004C69726579
:1036700020636F6E666967005361757665722063BB
:103680006F6E66696700496E697469616C6973651C
:103690007220454550524F4D00424C546F7563683F
:1036A0000046696C616D656E74004D6F7576656D71
:1036B000656E740054656D70657261747572650035
:1036C0004D656E75207072696E636970616C005231
:1036D00065676C2E2070726563682E20414253002E
:1036E0005265676C2E2070726563682E20504C41C5
:1036F000005049442D44005049442D440050494451
:103700002D49005049442D49005049442D50005046
:1037100049442D50000820466163746575720008A5
:1037200020466163746575720008204D6178000859
:10373000204D61780008204D696E0008204D696EAB
:10374000004172726574004D617263686500546572
:103750006D702E204175746F2E00566974657373F9
:10376000652076656E74696C2E2033005669746529
:103770007373652076656E74696C2E20330056690C
:1037800074657373652076656E74696C2E203200E3
:10379000566974657373652076656E74696C2E2046
:1037A0003200566974657373652076656E74696C52
:1037B0002E203100566974657373652076656E74CA
:1037C000696C2E2031004C6974004C69740042759C
:1037D0007365004275736500436F6E74726F6C653C
:1037E000720053617576657220636F6E666967005B
:1037F0004C6974004C6974004275736500427573BE
:103800006500566974657373652076656E74696CBE
:103810002E00566974657373652076656E74696CE5
:103820002E0054656D706572617475726500562066
:103830006465706C2E206D696E0056206465706C36
:103840002E206D696E00566D696E2000566D696E92
:103850002000566D6178204500566D617820450046
:10386000566D6178205A00566D6178205A00566D69
:103870006178205900566D6178205900566D617845
:10388000205800566D61782058004D6F7576656D33
:10389000656E7400416D6178204500416D6178204E
:1038A0004500416D6178205A00416D6178205A00D1
:1038B000416D6178205900416D6178205900416D5A
:1038C0006178205800416D6178205800412044659E
:1038D000706C2E0041204465706C2E004120726592
:1038E0007472616974004120726574726169740058
:1038F000416363656C65726174696F6E00416363F7
:10390000656C65726174696F6E004D6F7576656D7B
:10391000656E74005665206A65726B005665206A94
:1039200065726B00567A206A65726B00567A206A5F
:1039300065726B005679206A65726B005679206A51
:1039400065726B005678206A65726B005678206A43
:1039500065726B004D6F7576656D656E7400452000
:103960007061732F6D6D0045207061732F6D6D0058
:103970005A207061732F6D6D005A207061732F6D26
:103980006D0059207061732F6D6D00592070617347
:103990002F6D6D0058207061732F6D6D0058207071
:1039A00061732F6D6D004D6F7576656D656E74007A
:1039B0005061732F6D6D004A65726B0041636365E2
:1039C0006C65726174696F6E0056656C6F636974C3
:1039D0006500446563616C616765205A00446563F6
:1039E000616C616765205A00436F6E74726F6C651D
:1039F000720043686172676572206D6D0043686193
:103A000072676572206D6D004465636861726765F9
:103A100072206D6D00446563686172676572206D28
:103A20006D004469616D2E2046696C2E0044696109
:103A30006D2E2046696C2E004172726574004D61D6
:103A400072636865004520656E206D6D33004176B8
:103A5000616E6365204B004176616E6365204B00AB
:103A6000436F6E74726F6C65720043616E6E6F743B
:103A700020656E746572207375626469723A200005
:103A8000022E2E004D656E75207072696E6369702E
:103A9000616C0000546F74616C2066696C616D65C7
:103AA0006E743A2000256C642E25696D0000496D06
:103AB00070722E206C61202B206C6F6E6775653ADA
:103AC00020000054707320696D70722E20746F7422
:103AD000616C3A20005465726D696E6565733A20B9
:103AE000004E62726520696D7072657373696F6EE6
:103AF000733A200054656D70204D61783A20313161
:103B0000350054656D70204D696E3A202D313500B9
:103B1000544265643A4550434F53203130304B0096
:103B200054656D70204D61783A2032363500546509
:103B30006D70204D696E3A202D31350054303A2099
:103B4000486973656E7300416C696D656E7461746C
:103B5000696F6E3A2047656E657269630050726FD7
:103B6000746F636F6C653A20312E3000426175646A
:103B70003A203235303030300052616D626F004E85
:103B800069766561752062696C696E6561697265E7
:103B900000457874727564657572733A20310068F7
:103BA0007474703A2F2F6572796F6E652E636F6D26
:103BB000005468696E6B65722053450032303138AD
:103BC0002D30382D303100312E312E39004D6172BB
:103BD0006C696E0053746174732E20696D70726924
:103BE0006D616E746500546865726D6973746F728F
:103BF0007300496E666F7320636172746500496E6D
:103C0000666F7320696D7072696D616E7465004DC9
:103C1000656E75207072696E636970616C004D37F6
:103C2000303220542564004D36303020423020544C
:103C30002564004D373032203B2564004D3730314C
:103C4000205425640044656368617267657220666C
:103C5000696C2E00446563686172676572206669ED
:103C60006C2E004D373032004D37303100436861E3
:103C7000726765722066696C2E004D3630302042C6
:103C800030004368616E6765722066696C616D65BE
:103C90006E7400507265706172657200494D5052C9
:103CA0002E20504155534500444543484152474515
:103CB000522046494C00434841524745522046490C
:103CC0004C0050757267657220656E636F72650097
:103CD00052657072656E64726520696D70722E0037
:103CE0004F5054494F4E5320524550524953453A34
:103CF000002020427573653A20006368616E676535
:103D0000720064752066696C616D656E7400417443
:103D100074656E74652044656D61727261676500DB
:103D20002020427573653A20002000646563686155
:103D3000726765722066696C616D656E74004174AE
:103D400074656E7465206465002020427573653A61
:103D50002000200050617469656E74657A205356A6
:103D6000502E2E2E004275736520656E20636861AB
:103D700075666665002020427573653A2000200054
:103D80005072206368617566666572206C6120629E
:103D90007573650050726573736572206C6520627F
:103DA0006F75746F6E2E2E2E002020427573653A4B
:103DB0002000706F757220636F6E74696E75657226
:103DC0002E2E2E006574206170702E20626F757427
:103DD0006F6E00496E73657265722066696C616D05
:103DE000656E74002020427573653A2000200063E0
:103DF00068617267656D656E742066696C616D657A
:103E00006E7400417474656E7465206465002020D2
:103E1000427573653A200020005075726765722004
:103E200066696C616D656E7400417474656E74656D
:103E300000706F75722072657072656E64726500D5
:103E4000417474656E746520696D70726573736911
:103E50006F6E004361727465207265746972656586
:103E600000436172746520696E7365726565000058
:103E7000002200250028002B002E00310034000213
:103E8000010000050108010B0100002000230026AD
:103E90000029002C002F0032000001000003010661
:103EA00001090100000A0B02090C0D0E08070304AA
:103EB0000100000000000000000000000000000001
:103EC00000000000000000000000000000000012E0
:103ED00011100000000000000000000000000000C1
:103EE0000000000000000000000000210024002766
:103EF000002A002D003000330001010000040107FA
:103F0000010A010102102020080810204010204062
:103F1000800201020108040201010204081020408D
:103F200080804020100804020180040201804020AB
:103F300010080402010804020101020408102040D4
:103F400080010204081020408005050505070508CA
:103F5000080808020202020A0A080804040404010C
:103F6000010101010101010303030303030303042E
:103F70000707070C0C0C0C0C0C0C0C0202020206BE
:103F8000060606060606060B0B0B0B0B0B0B0B00AF
:103F90000000000000000000000000000000000021
:103FA00000E0000000000000000000000000000031
:103FB00003F000000000000000000000000000000E
:103FC00007FC0000000000000000000000000000EE
:103FD00007FF0000000000000000000000000000DB
:103FE000C3FFC0000000000000000000000000014E
:103FF000E1FFE000000000000000000000000003FE
:10400000F07FF80000000000000000000000000742
:10401000F81FFE0000000000000000000000000F7C
:10402000F807FF0000000000000000000000001F73
:10403000F003FE0000000000000000000000003F50
:10404000E000FC0000000000000000000000007F15
:10405000C000380000000000000000000000007FE9
:104060008000108000000000000000000000007FC1
:104070000000038000000000000000000000007E3F
:1040800000200783FF87FF100081C0600C7FF87C51
:1040900000700F87FFCFFF980187F0700CFFFC7C4A
:1040A00001FE0F80000C019C038E38780C00007C10
:1040B00007FC0F80000C018E071C1C7C0C00007C90
:1040C00001F00F80000C01870E180C6E0C00007CB4
:1040D00000E00F83FF8FFF83FC3006660C7FF87CC7
:1040E00000000F87FFCFFF01F83006600CFFFC7C5B
:1040F00000800F80000C030060300660CC00007C64
:1041000001F00F80000C018060180C60EC00007C56
:1041100003FC0F80000C0180601C1C607C00007C94
:104120000FF80F80000C0180600E38603C00007CAE
:1041300003E00F83FF8C01806007F0601C7FF87E36
:1041400001C00F87FFCC01806001C0600CFFFC7FC5
:1041500000001F8000000000000000000000007F41
:10416000C0003F8000000000000000000000007F51
:10417000F000FF8000000000000000000000003F91
:10418000FC01FF8000000000000000000000000FA4
:10419000FF07FF0000000000000000000000000317
:1041A000FF9FFC0000000000000000000000000075
:1041B000FF9FF80000000000000000000000000069
:1041C0003F9FE00000000000000000000000000031
:1041D0001F9F8000000000000000000000000000A1
:1041E000079F000000000000000000000000000029
:1041F000019C000000000000000000000000000022
:1042000000000000000000000000000000000000AE
:10421000000000000000000000000000000000207E
:1042200020506C616E6E6572427566666572427989
:104230007465733A20002046726565204D656D6F88
:1042400072793A2000436F6D70696C65643A20465C
:10425000656220313020323032310A00207C20412A
:104260007574686F723A20286572796F6E652C20BC
:104270007468696E6B65723235363020636F6E66B6
:104280006967290A00323031382D30382D3031003D
:10429000204C61737420557064617465643A200029
:1042A000312E312E390A004D61726C696E00205337
:1042B0006F6674776172652052657365740A0020B9
:1042C0005761746368646F672052657365740A0090
:1042D0002042726F776E206F75742052657365741B
:1042E0000A002045787465726E616C2052657365B2
:1042F000740A00506F77657255700A0073746172AA
:10430000740A006175746F25692E67006572726F9B
:10431000722077726974696E6720746F2066696CA9
:10432000650A004275746565732025632025632046
:10433000256320256300205A3A0020593A0020586E
:104340003A00656E6473746F7073206869743A2004
:1043500000446F6E6520736176696E672066696CD4
:10436000652E0A004D3239004368616E6765722020
:1043700066696C616D656E7400446563686172673F
:1043800065722066696C2E004368617267657220F1
:1043900066696C2E00507265636861756666616758
:1043A00065204142530050726563686175666661BD
:1043B000676520504C41004368616E6765722066F6
:1043C000696C616D656E74004D3234004D3233207E
:1043D000257300556E6B6E6F776E20636F6D6D6128
:1043E0006E643A202200496E736572742066696CAF
:1043F000616D656E7420616E6420707265737320E8
:10440000627574746F6E20286F72204D31303829B8
:104410000A00456368656320736F6E64650A004532
:104420006368656320736F6E646500205A3A2000EC
:1044300020593A200042656420583A200053544FD6
:104440005050452E005072696E7465722073746FFF
:10445000707065642064756520746F206572726F7A
:1044600072732E2046697820746865206572726FB9
:104470007220616E6420757365204D39393920745E
:104480006F20726573746172742E202854656D708C
:1044900065726174757265206973207265736574E5
:1044A0002E205365742069742061667465722072D1
:1044B000657374617274696E67290A0053544F50B2
:1044C0002063616C6C65642062656361757365204F
:1044D0006F6620424C546F756368206572726F720C
:1044E000202D20726573746172742077697468205E
:1044F0004D3939390A004F726967696E6520257335
:1045000025732573205072656D69657200205072A5
:10451000656D6965720A005A00590058004F72694A
:1045200067696E65200053442063617264206F6B7D
:104530000A006F70656E526F6F74206661696C65FA
:10454000640A00766F6C756D652E696E69742066FD
:1045500061696C65640A00534420696E6974206661
:1045600061696C0A0057726974696E6720746F2004
:1045700066696C653A20006F70656E206661696CD3
:1045800065642C2046696C653A20006F70656E206A
:104590006661696C65642C2046696C653A2000464A
:1045A000696C652073656C65637465640A002053EB
:1045B000697A653A200046696C65206F70656E65A2
:1045C000643A20002066696C653A2000646F696E69
:1045D00067006672657368004E6F772000454E4431
:1045E00020535542524F5554494E450A00222070DF
:1045F0006F73002220706172656E743A2200535509
:1046000042524F5554494E452043414C4C20746111
:10461000726765743A22004D4F52542E00747279BD
:10462000696E6720746F2063616C6C207375622DF6
:1046300067636F64652066696C6573207769746869
:1046400020746F6F206D616E79206C6576656C7378
:104650002E204D4158206C6576656C2069733A00B8
:104660004572726F723A006F70656E206661696C98
:1046700065642C2046696C653A200043616E6E6F5C
:1046800074206F70656E20737562646972200065B6
:1046900063686F3A0000060900FE070192032120BB
:1046A0007FFF07FF07FF0000000600000107070665
:1046B000020080808080800080030202060105A045
:1046C000A00507070600005050F850F850500507A5
:1046D000070600002078A07028F0200507070600D4
:1046E00000C0C81020409818050707060000609019
:1046F000A040A89068020303060104C0408003079D
:104700000706010020408080804020030707060143
:10471000008040202020408005050506000120A8DB
:1047200070A8200505050600012020F820200203BE
:10473000030602FFC04080050101060003F80202E3
:1047400002060200C0C00505050600010810204051
:10475000800507070600007088888888887003072E
:104760000706010040C040404040E0050707060042
:1047700000708808708080F8050707060000F810B0
:1047800020100808F005070706000010305090F8C8
:104790001010050707060000F880F008088870056B
:1047A0000707060000708080F088887005070706FC
:1047B0000000F808102020202005070706000070E0
:1047C00088887088887005070706000070888878D8
:1047D000080870020505060200C0C000C0C002063D
:1047E000060602FFC0C000C04080040707060000A4
:1047F00010204080402010050303060002F800F856
:1048000004070706010080402010204080050707AC
:104810000600007088081020002005070706000029
:1048200070880868A8A870050707060000708888C7
:10483000F8888888050707060000F08888F08888CF
:10484000F0050707060000708880808088700507E3
:1048500007060000F08888888888F00507070600AA
:1048600000F88080F08080F8050707060000F880D7
:1048700080F0808080050707060000708880B88877
:104880008870050707060000888888F888888801EE
:104890000707060200808080808080800507070669
:1048A00000003810101010906005070706000088FF
:1048B00090A0C0A090880507070600008080808037
:1048C0008080F805070706000088D8A888888888AF
:1048D0000507070600008888C8A898888805070784
:1048E0000600007088888888887005070706000021
:1048F000F08888F0808080050707060000708888AF
:1049000088A89068050707060000F08888F0A09046
:1049100088050707060000788080700808F0050702
:1049200007060000F82020202020200507070600A9
:1049300000888888888888700507070600008888AE
:10494000888888502005070706000088888888889E
:10495000A850050707060000888850205088880561
:1049600007070600008888885020202005070706D2
:104970000000F80810204080F8030707060100E057
:104980008080808080E005050506000180402010C1
:1049900008030707060100E02020202020E005038F
:1049A00003060004205088050101060000F80202F9
:1049B000020602058040050505060000700878889B
:1049C000780507070600008080B0C88888F00505D4
:1049D0000506000070808088700507070600000843
:1049E0000868988888780505050600007088F880B2
:1049F000700507070600003048E0404040400506CB
:104A0000060600FF70888878087005070706000012
:104A10008080B0C88888880107070602008000806F
:104A2000808080800308080601FF200020202020CD
:104A3000A040040707060000808090A0C0A090035B
:104A40000707060100C04040404040E0050505065C
:104A50000000D0A8A8A8A8050505060000B0C888D1
:104A60008888050505060000708888887005060698
:104A70000600FFF08888F080800506060600FF78B3
:104A80008888780808050505060000B0C880808081
:104A900005050506000070807008F0040707060091
:104AA000004040E040404030050505060000888891
:104AB0008898680505050600008888885020050547
:104AC000050600008888A8A850050505060000888E
:104AD000502050880506060600FF888888780870F0
:104AE000050505060000F8102040F8030707060139
:104AF00000204040804040200107070602008080DF
:104B000080808080800307070601008040402040AD
:104B100040800502020600026890000000060000C6
:104B200000060900FE000000000001090008FE0068
:104B30000005080806000040F0C88888987810052D
:104B40000808060000C0F88888888888F8050505E8
:104B50000600012030F8302005080806000020700B
:104B6000F820202020E00509090600FF2070A8A8F1
:104B7000B8888870200509090600FFE080C0B0A849
:104B8000283028280509090600FFF8A888888888A1
:104B900088A8F8050A0A0600FE205050505088A840
:104BA000A8887003030306000340A040B201680117
:104BB00011241FBECFEFD1E2DEBFCDBF00E00CBF9E
:104BC00013E0A0E0B2E0E2E1FFEA02E00BBF02C0C6
:104BD00007900D92A43BB107D9F728E1A4EBB3E00D
:104BE00001C01D92AD30B207E1F715E2C7EDD5E285
:104BF00000E006C021970109802FFE010F94E956BD
:104C0000C63DD10780E00807A9F70F9497440D949B
:104C100077570C9400009F92AF92BF92CF92DF9291
:104C2000EF92FF920F931F93CF93DF9300D01F92C9
:104C30001F92CDB7DEB7E3E4F3E20027BB27462F90
:104C4000572FA82FAA2341F4A52F542FB85FAA23CA
:104C500019F4A52F5527B85FA03138F45295A295C5
:104C6000452F4F70507FA42BBC5FA03428F4550F04
:104C7000AA1F550FAA1FBE5FA03818F4550FAA1F10
:104C8000B395550FAA1FEA0FF01F449151E0AA27D0
:104C9000B85081F1C8F0B0FF02C0440F551FB1FFFA
:104CA00004C0440F551F440F551FB2FF06C0529554
:104CB0004295142F1F70407F512BB3FF1BC0A52FAF
:104CC000542F44270C947A26B195B0FF02C0559515
:104CD0004795B1FF04C05595479555954795B2FF47
:104CE00005C05295407F4295452B5F70B3FF02C0CF
:104CF000452F5527DD24CC24BB24B2E0649FD01877
:104D0000C108B00AB00B749FC018B108B00B849FE3
:104D1000B018B109659FC018B108B00B759FB018E5
:104D2000B109859FB0196A9FB018B1097A9FB0196F
:104D30004D9DA12C99243327992722275D9DA00CF6
:104D4000911C301F901F201FAD9D900C311D901F96
:104D5000201F4C9DA00C911C301F901F201F5C9D9C
:104D6000900C311D901F201FAC9D300D911D201FF8
:104D70004B9D900C311D901F201F5B9D300D911D90
:104D8000201FAB9D900D211D4B9F300D911D201FAD
:104D90005B9F900D211DAB9F200DB1E0BB24CC2467
:104DA000DD24639FD018C108B00AB00B739FC018F0
:104DB000B108B00B839FB018B109699FC018B10842
:104DC000B00B799FB018B109899FB019629FB018D4
:104DD000B109729FB019D61AC70AB80A20F0B1E01B
:104DE0003B0F901F201F1124792F632F90E0822FFB
:104DF0000F900F900F900F900F90DF91CF911F9118
:104E00000F91FF90EF90DF90CF90BF90AF909F9069
:104E10000895CF93DF9390916F00292F227091FF17
:104E200005C090916F009D7F90936F0094E0899FE3
:104E3000A0011124FA01E655FF4E60817181828143
:104E40009381222329F020916F00226020936F002C
:104E5000EA01C052D34F0F94214F288139814A81F2
:104E60005B810F94804FDF91CF910895CF92DF92B5
:104E7000EF92FF928091700D882309F457C0C09083
:104E80006C0DD0906D0DE0906E0DF0906F0D20E0E8
:104E900030E0A901C701B6010F941A4F882309F425
:104EA00045C020E030E040E05FE3C701B6010F9469
:104EB000804F9B01AC010F94804F2BED3FE049E404
:104EC00050E40F94804F9B01AC0160E070E080E8FB
:104ED0009FE30F949D546B017C01C092F60CD0921D
:104EE000F70CE092F80CF092F90C609127027091A7
:104EF0002802072E000C880B990B0F94214F2AE0F3
:104F000037ED43E25CE30F94804FA70196010F94C5
:104F1000804F609323027093240280932502909324
:104F20002602FF90EF90DF90CF900895C12CD12CF6
:104F300080E8E82E8FE3F82ED0CF8F929F92AF9229
:104F4000BF92CF92DF92EF92FF92CF93DF93EC016B
:104F50008090D70C9090D80CA090D90CB090DA0C1F
:104F600020E030E0A901C501B4010F941A4F882355
:104F700009F452C0C880D980EA80FB80A70196015D
:104F8000C501B4010F941A4F18160CF04AC02091B5
:104F9000C0053091C1054091C2055091C305C701BC
:104FA000B6010F941A4F882321F1C092C005D09208
:104FB000C105E092C205F092C3052091BC05309175
:104FC000BD054091BE055091BF05C701B6010F94C4
:104FD000804F9B01AC0160E070E080E89FE30F949C
:104FE000A25360930F02709310028093110290936A
:104FF000120260910F027091100280911102909143
:105000001202DF91CF91FF90EF90DF90CF90BF9091
:10501000AF909F908F90089560E070E080E89FE3EC
:10502000F0CF60E070E0CB01ECCFCF92DF92EF9257
:10503000FF92CF93DF93EC01C090FF0CD090000D56
:10504000E090010DF090020DA70196016881798131
:105050008A819B810F941A4F87FF04C0C882D9822E
:10506000EA82FB82C090030DD090040DE090050D04
:10507000F090060DA70196016C817D818E819F8144
:105080000F941A4F87FF04C0CC82DD82EE82FF822C
:10509000C0902B02D0902C02E0902D02F0902E02B6
:1050A000A7019601688179818A819B810F940356BB
:1050B000181624F4C882D982EA82FB82C0902F029B
:1050C000D0903002E0903102F0903202A7019601B8
:1050D0006C817D818E819F810F940356181624F474
:1050E000CC82DD82EE82FF82C090070DD090080D49
:1050F000E090090DF0900A0DA70196016885798569
:105100008A859B850F941A4F87FF04C0C886D9866D
:10511000EA86FB86C0903302D0903402E0903502DC
:10512000F0903602A7019601688579858A859B856E
:105130000F940356181624F4C886D986EA86FB868F
:10514000DF91CF91FF90EF90DF90CF900895179A65
:10515000809187108E7F80938710169A8091871098
:105160008D7F80938710159A809187108B7F809315
:105170008710149A0895CF93DF9380E00E94092747
:10518000C2E1D5E0688379838A839B8381E00E94B2
:1051900009276C837D838E839F8382E00E94092789
:1051A000688779878A879B87DF91CF910895082E3A
:1051B000000C990BFC01E75BF04CE491EE2391F0BD
:1051C000F0E0EE0FFF1FE757F14CA591B4912C9141
:1051D0008D5F904CFC018491282381E090E021F4C4
:1051E00080E0089580E090E00895082E000C990B6F
:1051F000FC01E75BF04CE491F0E0EE0FFF1FE7519C
:10520000F14CA591B4912C918D5F904CFC0184914F
:10521000822391E009F490E0892F0895ECE9FAE007
:105220009491981739F031969AE0E93CF907C1F763
:1052300080E0089581E00895CF92DF92EF92FF928F
:105240006091FA0C7091FB0C072E000C880B990BE7
:105250000F94214F6B017C012DEB37E346E855EBB2
:105260000F94035687FD0BC02DEB37E346E855E35B
:10527000C701B6010F941A4F18160CF043C0A701CE
:10528000960160E070E080E89FE30F949D54609386
:105290000A0570930B0580930C0590930D056091A2
:1052A000FC0C7091FD0C072E000C880B990B0F94D1
:1052B000214F6B017C012DEB37E346E855EB0F9452
:1052C000035687FD0AC02DEB37E346E855E3C701D7
:1052D000B6010F941A4F1816CCF4A701960160E09E
:1052E00070E080E89FE30F949D5460930E057093E7
:1052F0000F058093100590931105FF90EF90DF90BC
:10530000CF90089560E070E0CB01C1CF60E070E025
:10531000CB01EBCF80912C0490912D04A0912E0411
:10532000B0912F048093630290936402A09365026E
:10533000B093660280912A0490912B0490932A02E4
:105340008093290208958091630290916402A09154
:105350006502B091660280932C0490932D04A09373
:105360002E04B0932F048091290290912A029093E9
:105370002B0480932A0484E690E090932A02809381
:10538000290208950F931F93CF93DF9394E0899F91
:10539000E00111248E0108571F4EFE01E057F14F26
:1053A000DE01AB59BA4F2D913D914D915C916081D9
:1053B0007181828193810F94A353F801608371837B
:1053C00082839383FE01ED5AF64F85919591A591C5
:1053D000B491FE01E150F34F80839183A283B383A4
:1053E000FE01E15AF64F85919591A591B491C55D65
:1053F000DD4F88839983AA83BB83DF91CF911F916F
:105400000F9108959091A00EE92FF0E0E456F14F2E
:1054100080839F5F943040F49093A00E809123107E
:105420008F5F8093231008951092A00EF7CF2FEB7B
:10543000280F2A3108F042C0E22FF0E080915B048F
:1054400090915C04A0915D04B0915E0404C0B69597
:10545000A795979587952A95D2F780FD02C0817010
:105460000895EF5BFB4FE081EE2329F1809154100A
:1054700090915510E80FF92FF11D808190ED980F54
:105480009A3030F08E3251F4818180538A3098F412
:10549000F093C203E093C10381E008958D3211F0CF
:1054A0008B3249F4818190ED980F9A3088F38E32D7
:1054B00011F48281EACFF0E0E0E0EACF80E00895E5
:1054C0000E94172A882341F081E02091C103309186
:1054D000C203232B09F480E00895089590E080E052
:1054E000089580E1E8E9F0E1ADE5B0E101900D92C9
:1054F0008A95E1F7089580E1EDE5F0E1A8E9B0E1F2
:1055000001900D928A95E1F708958091E4049091BD
:10551000E5042FEF3FEF981751F0E92FF0E0EC5939
:10552000FB4F208130E09F5F9F779093E504C90196
:105530000895CF93C091DF0C80E0C13069F1C23093
:1055400069F50E9413F06093BD0C7093BE0C8093BC
:10555000BF0C9093C00C81E08093DF0C0F94572315
:105560006093C10C7093C20C8093C30C9093C40CD5
:10557000C23089F080917D0E90917E0E01969093BD
:105580007E0E80937D0E1092E2051092E30510923C
:10559000E4051092E50581E0CF9108950E94E9F5B8
:1055A000DACF0F931F93CF93DF93EC010F94572320
:1055B0000E811F81288539850115110521053105C9
:1055C00079F52C85222339F1EA8521502C8721E0B9
:1055D0002E0F2A873D85231301C01A86F0E03196ED
:1055E000EE0FFF1FEE0FFF1FEC0FFD1F028513854F
:1055F000248535850A831B832C833D83600F711FAF
:10560000811D911D6E837F83888799878C819D8101
:10561000892B09F0769ADF91CF911F910F91089510
:10562000601B710B820B930B97FDF5CF76981E8252
:105630001F8218861986EFCF0F9457236093400579
:1056400070934105809342059093430508952F92EE
:105650003F924F925F926F927F928F929F92AF9202
:10566000BF92CF92DF92EF92FF920F931F93CF934F
:10567000DF93CDB7DEB76C970FB6F894DEBF0FBEE1
:10568000CDBF8C015B015A834983FC01EE5AFF4F69
:105690002081318142815381298B3A8B4B8B5C8BEA
:1056A000CA01B9010F941F4F6B017C01D5012D91E7
:1056B0003D914D915C910F94804F0F9481540F94C4
:1056C00016554B015C01E981FA81208131814281CB
:1056D0005381C701B6010F94804F0F9481540F94EA
:1056E000165589869A86AB86BC8629853A854B8570
:1056F0005C85283731054105510540F428E730E045
:1057000040E050E029873A874B875C876D837E8332
:105710008F8398874D815E816F81788548375105E9
:105720006105710540F468E770E080E090E06D830A
:105730007E838F839887F801E25AFF4F4080518023
:1057400062807380C301B2010F94214F69837A8311
:105750008B839C8369857A858B859C850F941F4FED
:105760006D8B7E8B8F8B988F20E030E0A901698153
:105770007A818B819C810F941A4F882309F4E1C1AF
:10578000A7019601C701B6010F94804F4B015C0140
:105790002D893E894F89588DCA01B9010F94804FD8
:1057A0009B01AC01C501B4010F94A2534B015C01F4
:1057B00029813A814B815C81CA01B9010F94A353BD
:1057C0009B01AC01C501B4010F949D540F94815409
:1057D0000F9416556D877E878F87988B662777275E
:1057E000CB0164197509860997090F94214F4B0164
:1057F0005C016D817E818F8198850F941F4F2B01F5
:105800003C0120E030E0A901C501B4010F941A4F1A
:10581000882309F49AC1A3019201C301B2010F9434
:10582000804F698F7A8F8B8F9C8FA7019601C7015C
:10583000B6010F94804F9B01AC01698D7A8D8B8DE1
:105840009C8D0F94A2536B017C01A5019401C501AD
:10585000B4010F94A3539B01AC01C701B6010F948F
:105860009D540F944555D80195968D909D90AD907F
:10587000BC909897750164012D853E854F855889A8
:10588000C21AD30AE40AF50A0F941655C61AD70AA3
:10589000E80AF90AF7FE8EC02D893E894F89588D96
:1058A000CA01B9010F94804F6B017C0129813A81B3
:1058B0004B815C81CA01B9010F94A353698B7A8B28
:1058C0008B8B9C8B20E030E0A90169817A818B81F0
:1058D0009C810F941A4F882309F43BC1C501B40180
:1058E0000F941F4F29893A894B895C890F94804F07
:1058F000A70196010F94A2536D877E878F87988B9F
:10590000A3019201C301B2010F94804F9B01AC012E
:105910006D857E858F8598890F94A3532B013C015B
:1059200020E030E040E850E469817A818B819C81FD
:105930000F94804F9B01AC01C301B2010F949D54A1
:105940000F9481542B013C0120E030E0A9010F9419
:10595000035618161CF0412C512C3201C301B20120
:105960000F9416556D877E878F87988B86169706BE
:10597000A806B90620F48D869E86AF86B88A6D8506
:105980007E858F8598890F941F4F29893A894B8985
:105990005C890F94804FA70196010F94A3530F9435
:1059A00051560F941655698B7A8B8B8B9C8BC12C1F
:1059B000D12C760169897A898B899C8929853A85D8
:1059C0004B855C85621B730B840B950B0F941F4FEB
:1059D00029813A814B815C810F949D5420E034E20F
:1059E00044EF59E40F94804F0F9416554B015C011E
:1059F00069897A898B899C892D813E814F8158855F
:105A0000621B730B840B950B0F941F4F29813A81F6
:105A10004B815C810F949D5420E034E244EF59E4C3
:105A20000F94804F0F9416552B013C013FE68316CF
:105A30009104A104B10408F090C0F401EE0FFF1F1F
:105A4000EE0FFF1FE35BFE4D85919591A591B491FB
:105A50008983292E3A2EBD8B4FE6441651046104EA
:105A6000710408F083C0F201EE0FFF1FEE0FFF1F5D
:105A7000E35BFE4D45915591659174919A01CB017F
:105A80004D855E856F857889D8019A964D935D9393
:105A90006D937C939D974C0D5D1D6E1D7F1DF801D0
:105AA00046A757A760AB71ABEA5AFF4F49855A85A5
:105AB0006B857C854083518362837383D6968D92F8
:105AC0009D92AD92BC92D997F80142AE53AE64AEAE
:105AD00075AEFE9649814083218232825D8953836F
